{
  "contractName": "ERC20Snapshot",
  "abi": [
    {
      "anonymous": false,
      "inputs": [
        {
          "indexed": true,
          "internalType": "address",
          "name": "owner",
          "type": "address"
        },
        {
          "indexed": true,
          "internalType": "address",
          "name": "spender",
          "type": "address"
        },
        {
          "indexed": false,
          "internalType": "uint256",
          "name": "value",
          "type": "uint256"
        }
      ],
      "name": "Approval",
      "type": "event"
    },
    {
      "anonymous": false,
      "inputs": [
        {
          "indexed": false,
          "internalType": "uint256",
          "name": "id",
          "type": "uint256"
        }
      ],
      "name": "Snapshot",
      "type": "event"
    },
    {
      "anonymous": false,
      "inputs": [
        {
          "indexed": true,
          "internalType": "address",
          "name": "from",
          "type": "address"
        },
        {
          "indexed": true,
          "internalType": "address",
          "name": "to",
          "type": "address"
        },
        {
          "indexed": false,
          "internalType": "uint256",
          "name": "value",
          "type": "uint256"
        }
      ],
      "name": "Transfer",
      "type": "event"
    },
    {
      "inputs": [
        {
          "internalType": "address",
          "name": "owner",
          "type": "address"
        },
        {
          "internalType": "address",
          "name": "spender",
          "type": "address"
        }
      ],
      "name": "allowance",
      "outputs": [
        {
          "internalType": "uint256",
          "name": "",
          "type": "uint256"
        }
      ],
      "stateMutability": "view",
      "type": "function"
    },
    {
      "inputs": [
        {
          "internalType": "address",
          "name": "spender",
          "type": "address"
        },
        {
          "internalType": "uint256",
          "name": "amount",
          "type": "uint256"
        }
      ],
      "name": "approve",
      "outputs": [
        {
          "internalType": "bool",
          "name": "",
          "type": "bool"
        }
      ],
      "stateMutability": "nonpayable",
      "type": "function"
    },
    {
      "inputs": [
        {
          "internalType": "address",
          "name": "account",
          "type": "address"
        }
      ],
      "name": "balanceOf",
      "outputs": [
        {
          "internalType": "uint256",
          "name": "",
          "type": "uint256"
        }
      ],
      "stateMutability": "view",
      "type": "function"
    },
    {
      "inputs": [
        {
          "internalType": "address",
          "name": "spender",
          "type": "address"
        },
        {
          "internalType": "uint256",
          "name": "subtractedValue",
          "type": "uint256"
        }
      ],
      "name": "decreaseAllowance",
      "outputs": [
        {
          "internalType": "bool",
          "name": "",
          "type": "bool"
        }
      ],
      "stateMutability": "nonpayable",
      "type": "function"
    },
    {
      "inputs": [
        {
          "internalType": "address",
          "name": "spender",
          "type": "address"
        },
        {
          "internalType": "uint256",
          "name": "addedValue",
          "type": "uint256"
        }
      ],
      "name": "increaseAllowance",
      "outputs": [
        {
          "internalType": "bool",
          "name": "",
          "type": "bool"
        }
      ],
      "stateMutability": "nonpayable",
      "type": "function"
    },
    {
      "inputs": [],
      "name": "totalSupply",
      "outputs": [
        {
          "internalType": "uint256",
          "name": "",
          "type": "uint256"
        }
      ],
      "stateMutability": "view",
      "type": "function"
    },
    {
      "inputs": [
        {
          "internalType": "address",
          "name": "recipient",
          "type": "address"
        },
        {
          "internalType": "uint256",
          "name": "amount",
          "type": "uint256"
        }
      ],
      "name": "transfer",
      "outputs": [
        {
          "internalType": "bool",
          "name": "",
          "type": "bool"
        }
      ],
      "stateMutability": "nonpayable",
      "type": "function"
    },
    {
      "inputs": [
        {
          "internalType": "address",
          "name": "sender",
          "type": "address"
        },
        {
          "internalType": "address",
          "name": "recipient",
          "type": "address"
        },
        {
          "internalType": "uint256",
          "name": "amount",
          "type": "uint256"
        }
      ],
      "name": "transferFrom",
      "outputs": [
        {
          "internalType": "bool",
          "name": "",
          "type": "bool"
        }
      ],
      "stateMutability": "nonpayable",
      "type": "function"
    },
    {
      "inputs": [],
      "name": "snapshot",
      "outputs": [
        {
          "internalType": "uint256",
          "name": "",
          "type": "uint256"
        }
      ],
      "stateMutability": "nonpayable",
      "type": "function"
    },
    {
      "inputs": [
        {
          "internalType": "address",
          "name": "account",
          "type": "address"
        },
        {
          "internalType": "uint256",
          "name": "snapshotId",
          "type": "uint256"
        }
      ],
      "name": "balanceOfAt",
      "outputs": [
        {
          "internalType": "uint256",
          "name": "",
          "type": "uint256"
        }
      ],
      "stateMutability": "view",
      "type": "function"
    },
    {
      "inputs": [
        {
          "internalType": "uint256",
          "name": "snapshotId",
          "type": "uint256"
        }
      ],
      "name": "totalSupplyAt",
      "outputs": [
        {
          "internalType": "uint256",
          "name": "",
          "type": "uint256"
        }
      ],
      "stateMutability": "view",
      "type": "function"
    }
  ],
  "bytecode": "0x60806040526113cb806100136000396000f3fe608060405234801561001057600080fd5b50600436106100a95760003560e01c806370a082311161007157806370a08231146102805780639711715a146102d8578063981b24d0146102f6578063a457c2d714610338578063a9059cbb1461039e578063dd62ed3e14610404576100a9565b8063095ea7b3146100ae57806318160ddd1461011457806323b872dd1461013257806339509351146101b85780634ee2cd7e1461021e575b600080fd5b6100fa600480360360408110156100c457600080fd5b81019080803573ffffffffffffffffffffffffffffffffffffffff1690602001909291908035906020019092919050505061047c565b604051808215151515815260200191505060405180910390f35b61011c61049a565b6040518082815260200191505060405180910390f35b61019e6004803603606081101561014857600080fd5b81019080803573ffffffffffffffffffffffffffffffffffffffff169060200190929190803573ffffffffffffffffffffffffffffffffffffffff169060200190929190803590602001909291905050506104a4565b604051808215151515815260200191505060405180910390f35b610204600480360360408110156101ce57600080fd5b81019080803573ffffffffffffffffffffffffffffffffffffffff1690602001909291908035906020019092919050505061057d565b604051808215151515815260200191505060405180910390f35b61026a6004803603604081101561023457600080fd5b81019080803573ffffffffffffffffffffffffffffffffffffffff16906020019092919080359060200190929190505050610630565b6040518082815260200191505060405180910390f35b6102c26004803603602081101561029657600080fd5b81019080803573ffffffffffffffffffffffffffffffffffffffff1690602001909291905050506106a0565b6040518082815260200191505060405180910390f35b6102e06106e8565b6040518082815260200191505060405180910390f35b6103226004803603602081101561030c57600080fd5b8101908080359060200190929190505050610740565b6040518082815260200191505060405180910390f35b6103846004803603604081101561034e57600080fd5b81019080803573ffffffffffffffffffffffffffffffffffffffff16906020019092919080359060200190929190505050610771565b604051808215151515815260200191505060405180910390f35b6103ea600480360360408110156103b457600080fd5b81019080803573ffffffffffffffffffffffffffffffffffffffff1690602001909291908035906020019092919050505061083e565b604051808215151515815260200191505060405180910390f35b6104666004803603604081101561041a57600080fd5b81019080803573ffffffffffffffffffffffffffffffffffffffff169060200190929190803573ffffffffffffffffffffffffffffffffffffffff16906020019092919050505061085c565b6040518082815260200191505060405180910390f35b60006104906104896108e3565b84846108eb565b6001905092915050565b6000600254905090565b60006104b1848484610ae2565b610572846104bd6108e3565b61056d8560405180606001604052806028815260200161130060289139600160008b73ffffffffffffffffffffffffffffffffffffffff1673ffffffffffffffffffffffffffffffffffffffff16815260200190815260200160002060006105236108e3565b73ffffffffffffffffffffffffffffffffffffffff1673ffffffffffffffffffffffffffffffffffffffff16815260200190815260200160002054610b049092919063ffffffff16565b6108eb565b600190509392505050565b600061062661058a6108e3565b84610621856001600061059b6108e3565b73ffffffffffffffffffffffffffffffffffffffff1673ffffffffffffffffffffffffffffffffffffffff16815260200190815260200160002060008973ffffffffffffffffffffffffffffffffffffffff1673ffffffffffffffffffffffffffffffffffffffff16815260200190815260200160002054610bc490919063ffffffff16565b6108eb565b6001905092915050565b600080600061067d84600360008873ffffffffffffffffffffffffffffffffffffffff1673ffffffffffffffffffffffffffffffffffffffff168152602001908152602001600020610c4c565b91509150816106945761068f856106a0565b610696565b805b9250505092915050565b60008060008373ffffffffffffffffffffffffffffffffffffffff1673ffffffffffffffffffffffffffffffffffffffff168152602001908152602001600020549050919050565b60006106f46006610da6565b60006107006006610dbc565b90507f8030e83b04d87bef53480e26263266d6ca66863aa8506aca6f2559d18aa1cb67816040518082815260200191505060405180910390a18091505090565b6000806000610750846004610c4c565b91509150816107665761076161049a565b610768565b805b92505050919050565b600061083461077e6108e3565b8461082f8560405180606001604052806025815260200161137160259139600160006107a86108e3565b73ffffffffffffffffffffffffffffffffffffffff1673ffffffffffffffffffffffffffffffffffffffff16815260200190815260200160002060008a73ffffffffffffffffffffffffffffffffffffffff1673ffffffffffffffffffffffffffffffffffffffff16815260200190815260200160002054610b049092919063ffffffff16565b6108eb565b6001905092915050565b600061085261084b6108e3565b8484610ae2565b6001905092915050565b6000600160008473ffffffffffffffffffffffffffffffffffffffff1673ffffffffffffffffffffffffffffffffffffffff16815260200190815260200160002060008373ffffffffffffffffffffffffffffffffffffffff1673ffffffffffffffffffffffffffffffffffffffff16815260200190815260200160002054905092915050565b600033905090565b600073ffffffffffffffffffffffffffffffffffffffff168373ffffffffffffffffffffffffffffffffffffffff161415610971576040517f08c379a000000000000000000000000000000000000000000000000000000000815260040180806020018281038252602481526020018061134d6024913960400191505060405180910390fd5b600073ffffffffffffffffffffffffffffffffffffffff168273ffffffffffffffffffffffffffffffffffffffff1614156109f7576040517f08c379a00000000000000000000000000000000000000000000000000000000081526004018080602001828103825260228152602001806112b86022913960400191505060405180910390fd5b80600160008573ffffffffffffffffffffffffffffffffffffffff1673ffffffffffffffffffffffffffffffffffffffff16815260200190815260200160002060008473ffffffffffffffffffffffffffffffffffffffff1673ffffffffffffffffffffffffffffffffffffffff168152602001908152602001600020819055508173ffffffffffffffffffffffffffffffffffffffff168373ffffffffffffffffffffffffffffffffffffffff167f8c5be1e5ebec7d5bd14f71427d1e84f3dd0314c0f7b2291e5b200ac8c7c3b925836040518082815260200191505060405180910390a3505050565b610aeb83610dca565b610af482610dca565b610aff838383610e1d565b505050565b6000838311158290610bb1576040517f08c379a00000000000000000000000000000000000000000000000000000000081526004018080602001828103825283818151815260200191508051906020019080838360005b83811015610b76578082015181840152602081019050610b5b565b50505050905090810190601f168015610ba35780820380516001836020036101000a031916815260200191505b509250505060405180910390fd5b5060008385039050809150509392505050565b600080828401905083811015610c42576040517f08c379a000000000000000000000000000000000000000000000000000000000815260040180806020018281038252601b8152602001807f536166654d6174683a206164646974696f6e206f766572666c6f77000000000081525060200191505060405180910390fd5b8091505092915050565b60008060008411610cc5576040517f08c379a00000000000000000000000000000000000000000000000000000000081526004018080602001828103825260168152602001807f4552433230536e617073686f743a20696420697320300000000000000000000081525060200191505060405180910390fd5b610ccf6006610dbc565b841115610d44576040517f08c379a000000000000000000000000000000000000000000000000000000000815260040180806020018281038252601d8152602001807f4552433230536e617073686f743a206e6f6e6578697374656e7420696400000081525060200191505060405180910390fd5b6000610d5c85856000016110de90919063ffffffff16565b90508360000180549050811415610d7d576000808090509250925050610d9f565b6001846001018281548110610d8e57fe5b906000526020600020015492509250505b9250929050565b6001816000016000828254019250508190555050565b600081600001549050919050565b610e1a600360008373ffffffffffffffffffffffffffffffffffffffff1673ffffffffffffffffffffffffffffffffffffffff168152602001908152602001600020610e15836106a0565b611193565b50565b600073ffffffffffffffffffffffffffffffffffffffff168373ffffffffffffffffffffffffffffffffffffffff161415610ea3576040517f08c379a00000000000000000000000000000000000000000000000000000000081526004018080602001828103825260258152602001806113286025913960400191505060405180910390fd5b600073ffffffffffffffffffffffffffffffffffffffff168273ffffffffffffffffffffffffffffffffffffffff161415610f29576040517f08c379a00000000000000000000000000000000000000000000000000000000081526004018080602001828103825260238152602001806112956023913960400191505060405180910390fd5b610f34838383611210565b610f9f816040518060600160405280602681526020016112da602691396000808773ffffffffffffffffffffffffffffffffffffffff1673ffffffffffffffffffffffffffffffffffffffff16815260200190815260200160002054610b049092919063ffffffff16565b6000808573ffffffffffffffffffffffffffffffffffffffff1673ffffffffffffffffffffffffffffffffffffffff16815260200190815260200160002081905550611032816000808573ffffffffffffffffffffffffffffffffffffffff1673ffffffffffffffffffffffffffffffffffffffff16815260200190815260200160002054610bc490919063ffffffff16565b6000808473ffffffffffffffffffffffffffffffffffffffff1673ffffffffffffffffffffffffffffffffffffffff168152602001908152602001600020819055508173ffffffffffffffffffffffffffffffffffffffff168373ffffffffffffffffffffffffffffffffffffffff167fddf252ad1be2c89b69c2b068fc378daa952ba7f163c4a11628f55a4df523b3ef836040518082815260200191505060405180910390a3505050565b600080838054905014156110f5576000905061118d565b60008090506000848054905090505b8082101561114d5760006111188383611215565b90508486828154811061112757fe5b9060005260206000200154111561114057809150611147565b6001810192505b50611104565b60008211801561117557508385600184038154811061116857fe5b9060005260206000200154145b1561118757600182039250505061118d565b81925050505b92915050565b600061119f6006610dbc565b9050806111ae84600001611257565b101561120b5782600001819080600181540180825580915050600190039060005260206000200160009091909190915055826001018290806001815401808255809150506001900390600052602060002001600090919091909150555b505050565b505050565b6000600280838161122257fe5b066002858161122d57fe5b06018161123657fe5b046002838161124157fe5b046002858161124c57fe5b040101905092915050565b6000808280549050141561126e576000905061128f565b8160018380549050038154811061128157fe5b906000526020600020015490505b91905056fe45524332303a207472616e7366657220746f20746865207a65726f206164647265737345524332303a20617070726f766520746f20746865207a65726f206164647265737345524332303a207472616e7366657220616d6f756e7420657863656564732062616c616e636545524332303a207472616e7366657220616d6f756e74206578636565647320616c6c6f77616e636545524332303a207472616e736665722066726f6d20746865207a65726f206164647265737345524332303a20617070726f76652066726f6d20746865207a65726f206164647265737345524332303a2064656372656173656420616c6c6f77616e63652062656c6f77207a65726fa26469706673582212208f2c3c13633e16572e89fcca22769f38e73c0eb5442677f382837b3754121e5464736f6c63430006000033",
  "source": "pragma solidity ^0.6.0;\n\nimport \"../math/SafeMath.sol\";\nimport \"../utils/Arrays.sol\";\nimport \"../drafts/Counters.sol\";\nimport \"../token/ERC20/ERC20.sol\";\n\n/**\n * @title ERC20 token with snapshots.\n * @dev Inspired by Jordi Baylina's\n * https://github.com/Giveth/minimd/blob/ea04d950eea153a04c51fa510b068b9dded390cb/contracts/MiniMeToken.sol[MiniMeToken]\n * to record historical balances.\n *\n * When a snapshot is made, the balances and total supply at the time of the snapshot are recorded for later\n * access.\n *\n * To make a snapshot, call the {snapshot} function, which will emit the {Snapshot} event and return a snapshot id.\n * To get the total supply from a snapshot, call the function {totalSupplyAt} with the snapshot id.\n * To get the balance of an account from a snapshot, call the {balanceOfAt} function with the snapshot id and the\n * account address.\n * @author Validity Labs AG <info@validitylabs.org>\n */\ncontract ERC20Snapshot is ERC20 {\n    using SafeMath for uint256;\n    using Arrays for uint256[];\n    using Counters for Counters.Counter;\n\n    // Snapshotted values have arrays of ids and the value corresponding to that id. These could be an array of a\n    // Snapshot struct, but that would impede usage of functions that work on an array.\n    struct Snapshots {\n        uint256[] ids;\n        uint256[] values;\n    }\n\n    mapping (address => Snapshots) private _accountBalanceSnapshots;\n    Snapshots private _totalSupplySnapshots;\n\n    // Snapshot ids increase monotonically, with the first value being 1. An id of 0 is invalid.\n    Counters.Counter private _currentSnapshotId;\n\n    event Snapshot(uint256 id);\n\n    // Creates a new snapshot id. Balances are only stored in snapshots on demand: unless a snapshot was taken, a\n    // balance change will not be recorded. This means the extra added cost of storing snapshotted balances is only paid\n    // when required, but is also flexible enough that it allows for e.g. daily snapshots.\n    function snapshot() public virtual returns (uint256) {\n        _currentSnapshotId.increment();\n\n        uint256 currentId = _currentSnapshotId.current();\n        emit Snapshot(currentId);\n        return currentId;\n    }\n\n    function balanceOfAt(address account, uint256 snapshotId) public view returns (uint256) {\n        (bool snapshotted, uint256 value) = _valueAt(snapshotId, _accountBalanceSnapshots[account]);\n\n        return snapshotted ? value : balanceOf(account);\n    }\n\n    function totalSupplyAt(uint256 snapshotId) public view returns(uint256) {\n        (bool snapshotted, uint256 value) = _valueAt(snapshotId, _totalSupplySnapshots);\n\n        return snapshotted ? value : totalSupply();\n    }\n\n    // _transfer, _mint and _burn are the only functions where the balances are modified, so it is there that the\n    // snapshots are updated. Note that the update happens _before_ the balance change, with the pre-modified value.\n    // The same is true for the total supply and _mint and _burn.\n    function _transfer(address from, address to, uint256 value) internal virtual override {\n        _updateAccountSnapshot(from);\n        _updateAccountSnapshot(to);\n\n        super._transfer(from, to, value);\n    }\n\n    function _mint(address account, uint256 value) internal virtual override {\n        _updateAccountSnapshot(account);\n        _updateTotalSupplySnapshot();\n\n        super._mint(account, value);\n    }\n\n    function _burn(address account, uint256 value) internal virtual override {\n        _updateAccountSnapshot(account);\n        _updateTotalSupplySnapshot();\n\n        super._burn(account, value);\n    }\n\n    // When a valid snapshot is queried, there are three possibilities:\n    //  a) The queried value was not modified after the snapshot was taken. Therefore, a snapshot entry was never\n    //  created for this id, and all stored snapshot ids are smaller than the requested one. The value that corresponds\n    //  to this id is the current one.\n    //  b) The queried value was modified after the snapshot was taken. Therefore, there will be an entry with the\n    //  requested id, and its value is the one to return.\n    //  c) More snapshots were created after the requested one, and the queried value was later modified. There will be\n    //  no entry for the requested id: the value that corresponds to it is that of the smallest snapshot id that is\n    //  larger than the requested one.\n    //\n    // In summary, we need to find an element in an array, returning the index of the smallest value that is larger if\n    // it is not found, unless said value doesn't exist (e.g. when all values are smaller). Arrays.findUpperBound does\n    // exactly this.\n    function _valueAt(uint256 snapshotId, Snapshots storage snapshots)\n        private view returns (bool, uint256)\n    {\n        require(snapshotId > 0, \"ERC20Snapshot: id is 0\");\n        // solhint-disable-next-line max-line-length\n        require(snapshotId <= _currentSnapshotId.current(), \"ERC20Snapshot: nonexistent id\");\n\n        uint256 index = snapshots.ids.findUpperBound(snapshotId);\n\n        if (index == snapshots.ids.length) {\n            return (false, 0);\n        } else {\n            return (true, snapshots.values[index]);\n        }\n    }\n\n    function _updateAccountSnapshot(address account) private {\n        _updateSnapshot(_accountBalanceSnapshots[account], balanceOf(account));\n    }\n\n    function _updateTotalSupplySnapshot() private {\n        _updateSnapshot(_totalSupplySnapshots, totalSupply());\n    }\n\n    function _updateSnapshot(Snapshots storage snapshots, uint256 currentValue) private {\n        uint256 currentId = _currentSnapshotId.current();\n        if (_lastSnapshotId(snapshots.ids) < currentId) {\n            snapshots.ids.push(currentId);\n            snapshots.values.push(currentValue);\n        }\n    }\n\n    function _lastSnapshotId(uint256[] storage ids) private view returns (uint256) {\n        if (ids.length == 0) {\n            return 0;\n        } else {\n            return ids[ids.length - 1];\n        }\n    }\n}\n",
  "sourcePath": "C:\\Users\\feder\\Code\\tokenization-project\\contracts\\openzeppelin\\contracts\\drafts\\ERC20Snapshot.sol",
  "compiler": {
    "name": "solc",
    "version": "0.6.0+commit.26b70077.Emscripten.clang"
  },
  "schemaVersion": "3.4.4",
  "updatedAt": "2022-02-18T18:28:04.529Z",
  "devdoc": {
    "author": "Validity Labs AG <info@validitylabs.org>",
    "details": "Inspired by Jordi Baylina's https://github.com/Giveth/minimd/blob/ea04d950eea153a04c51fa510b068b9dded390cb/contracts/MiniMeToken.sol[MiniMeToken] to record historical balances. * When a snapshot is made, the balances and total supply at the time of the snapshot are recorded for later access. * To make a snapshot, call the {snapshot} function, which will emit the {Snapshot} event and return a snapshot id. To get the total supply from a snapshot, call the function {totalSupplyAt} with the snapshot id. To get the balance of an account from a snapshot, call the {balanceOfAt} function with the snapshot id and the account address.",
    "methods": {
      "allowance(address,address)": {
        "details": "See {IERC20-allowance}."
      },
      "approve(address,uint256)": {
        "details": "See {IERC20-approve}.     * Requirements:     * - `spender` cannot be the zero address."
      },
      "balanceOf(address)": {
        "details": "See {IERC20-balanceOf}."
      },
      "decreaseAllowance(address,uint256)": {
        "details": "Atomically decreases the allowance granted to `spender` by the caller.     * This is an alternative to {approve} that can be used as a mitigation for problems described in {IERC20-approve}.     * Emits an {Approval} event indicating the updated allowance.     * Requirements:     * - `spender` cannot be the zero address. - `spender` must have allowance for the caller of at least `subtractedValue`."
      },
      "increaseAllowance(address,uint256)": {
        "details": "Atomically increases the allowance granted to `spender` by the caller.     * This is an alternative to {approve} that can be used as a mitigation for problems described in {IERC20-approve}.     * Emits an {Approval} event indicating the updated allowance.     * Requirements:     * - `spender` cannot be the zero address."
      },
      "totalSupply()": {
        "details": "See {IERC20-totalSupply}."
      },
      "transfer(address,uint256)": {
        "details": "See {IERC20-transfer}.     * Requirements:     * - `recipient` cannot be the zero address. - the caller must have a balance of at least `amount`."
      },
      "transferFrom(address,address,uint256)": {
        "details": "See {IERC20-transferFrom}.     * Emits an {Approval} event indicating the updated allowance. This is not required by the EIP. See the note at the beginning of {ERC20};     * Requirements: - `sender` and `recipient` cannot be the zero address. - `sender` must have a balance of at least `amount`. - the caller must have allowance for `sender`'s tokens of at least `amount`."
      }
    },
    "title": "ERC20 token with snapshots."
  },
  "userdoc": {
    "methods": {}
  }
}