{
  "contractName": "ERC20Metadata",
  "abi": [
    {
      "inputs": [
        {
          "internalType": "string",
          "name": "tokenURI_",
          "type": "string"
        }
      ],
      "stateMutability": "nonpayable",
      "type": "constructor"
    },
    {
      "inputs": [],
      "name": "tokenURI",
      "outputs": [
        {
          "internalType": "string",
          "name": "",
          "type": "string"
        }
      ],
      "stateMutability": "view",
      "type": "function"
    }
  ],
  "bytecode": "0x608060405234801561001057600080fd5b5060405161035c38038061035c8339818101604052602081101561003357600080fd5b810190808051604051939291908464010000000082111561005357600080fd5b8382019150602082018581111561006957600080fd5b825186600182028301116401000000008211171561008657600080fd5b8083526020830192505050908051906020019080838360005b838110156100ba57808201518184015260208101905061009f565b50505050905090810190601f1680156100e75780820380516001836020036101000a031916815260200191505b506040525050506100fd8161010360201b60201c565b506101c2565b806000908051906020019061011992919061011d565b5050565b828054600181600116156101000203166002900490600052602060002090601f016020900481019282601f1061015e57805160ff191683800117855561018c565b8280016001018555821561018c579182015b8281111561018b578251825591602001919060010190610170565b5b509050610199919061019d565b5090565b6101bf91905b808211156101bb5760008160009055506001016101a3565b5090565b90565b61018b806101d16000396000f3fe608060405234801561001057600080fd5b506004361061002b5760003560e01c80633c130d9014610030575b600080fd5b6100386100b3565b6040518080602001828103825283818151815260200191508051906020019080838360005b8381101561007857808201518184015260208101905061005d565b50505050905090810190601f1680156100a55780820380516001836020036101000a031916815260200191505b509250505060405180910390f35b606060008054600181600116156101000203166002900480601f01602080910402602001604051908101604052809291908181526020018280546001816001161561010002031660029004801561014b5780601f106101205761010080835404028352916020019161014b565b820191906000526020600020905b81548152906001019060200180831161012e57829003601f168201915b505050505090509056fea26469706673582212205f03ce8b1e89053a49e4a0330ea0e31c77526231700794fad1ef8ca7c9ee21ea64736f6c63430006000033",
  "source": "pragma solidity ^0.6.0;\n\nimport \"../../token/ERC20/IERC20.sol\";\n\n/**\n * @title ERC-1047 Token Metadata\n * @dev See https://eips.ethereum.org/EIPS/eip-1046\n * @dev {tokenURI} must respond with a URI that implements https://eips.ethereum.org/EIPS/eip-1047\n */\ncontract ERC20Metadata {\n    string private _tokenURI;\n\n    constructor (string memory tokenURI_) public {\n        _setTokenURI(tokenURI_);\n    }\n\n    function tokenURI() external view returns (string memory) {\n        return _tokenURI;\n    }\n\n    function _setTokenURI(string memory tokenURI_) internal virtual {\n        _tokenURI = tokenURI_;\n    }\n}\n",
  "sourcePath": "C:\\Users\\feder\\Code\\tokenization-project\\contracts\\openzeppelin\\contracts\\drafts\\ERC1046\\ERC20Metadata.sol",
  "compiler": {
    "name": "solc",
    "version": "0.6.0+commit.26b70077.Emscripten.clang"
  },
  "schemaVersion": "3.4.4",
  "updatedAt": "2022-02-18T18:28:04.524Z",
  "devdoc": {
    "details": "See https://eips.ethereum.org/EIPS/eip-1046{tokenURI} must respond with a URI that implements https://eips.ethereum.org/EIPS/eip-1047",
    "methods": {},
    "title": "ERC-1047 Token Metadata"
  },
  "userdoc": {
    "methods": {}
  }
}